:107000000C9453380C948D380C946E380C946E3864
:107010000C946E380C946E380C946E380C946E3858
:107020000C946E380C946E380C946E380C946E3848
:107030000C946E380C946E380C946E380C946E3838
:107040000C946E380C946E380C946E380C946E3828
:107050000C946E38040309041C0377007700770052
:107060002E00660069007300630068006C002E004B
:10707000640065000E035500530042006100730078
:10708000700012011001FF000008C016DC050201AB
:10709000010200010902120001010080320904000E
:1070A00000000000000011241FBECFE5D8E0DEBFC5
:1070B000CDBF10E0A0E6B0E0EAE0F9E702C005903D
:1070C0000D92A636B107D9F710E0A6E6B0E001C0F0
:1070D0001D92A13AB107E1F70C94113A0C940038D3
:1070E000A82FB92F8FEF9FEF41E050EA615070F069
:1070F0002D9138E0722F782796958795269570FF09
:1071000002C0842795273A95A9F7F0CF80959095EE
:107110000895E6DF8D939D930895CF93CFB7CF93D6
:10712000809BFECF809B09C0809B07C0809B05C0D1
:10713000809B03C0809B01C0A1C0DF93C0918400ED
:10714000DD27C557DF4F809B02C0DF91EBCF2F9328
:107150000F931F9300B32FEF00FB20F94F933F9342
:1071600010B34FEF012700FB21F93BE031C04E7F08
:10717000012F10B3216028C0102F4D7F2260000026
:1071800000B329C04B7F2460012F000010B32BC037
:1071900010B3477F28602AC04F7E00B320612CC007
:1071A0004F7D10B320622FC04F7B00B3206432C0EC
:1071B000422700B349934FEF0000102710FB20F93E
:1071C00010B31570C9F1297F91F2012700FB21F955
:1071D00000B3237F89F2315058F1102710FB22F9B8
:1071E00010B3277E79F2012700FB23F92F7C81F26F
:1071F00000B3102710FB24F92F7971F200C010B3EF
:10720000012700FB25F92F7359F200C000B31027A6
:1072100010FB26F9223040F200C010B3012700FB1A
:1072200027F9243028F64F77206810B30000F9CFF3
:1072300010E41ABF002717C03B503195C31BD04044
:1072400010E41ABF0881033CE9F00B34D9F0209117
:1072500082001981110F1213EDCF093641F10D3261
:1072600011F0013E39F7009389003F914F911F9132
:107270000F912F91DF91CAB7C6FD52CFCF91CFBFEB
:10728000CF91189500918900002379F31091870020
:10729000112349F534304AF130938700009383007D
:1072A000109184003BE0311B309384001EC000919C
:1072B00087000130C4F40AE53091610034FD17C045
:1072C00000936100C7E7D0E016C0052710E002BBBD
:1072D0001FC0052722C0052727C005272CC005276A
:1072E00010E002BB33C04AE503C042ED01C0432FAA
:1072F000C4E1D0E032E011B31560909A02B311BB43
:107300005F9355E020E820FF052702BB27951795DE
:107310001C3FD8F620FF0527279502BB17951C3F79
:10732000C0F620FF05272795179502BB1C3F98F64E
:1073300020FF0527279517951C3F02BB70F600C05C
:10734000499120FF052702BB279517951C3F38F66A
:1073500020FF0527279502BB17951C3F38F520FF16
:1073600005272795179502BB1C3F10F520FF052721
:10737000279517951C3F02BBE8F4242F3A9519F680
:107380000A7F5F9102BB10918800110FC651D04057
:1073900011F01093820010E41ABF016011B31A7F3C
:1073A000402F4A7F02BB11BB42BB5FCF0527D3CF23
:1073B0000527D8CF0527DDCFB79B03C080E090E03D
:1073C000089588EB9BE00197F1F7809166008F5F4D
:1073D000809366008F3719F081E090E008958091E6
:1073E0006700813059F0813018F0823099F40EC076
:1073F000969882B3806382BB81E005C0959882B382
:10740000806582BB82E08093670006C0949882B357
:10741000806682BB109267001092660081E090E067
:107420000895CFE5D8E0DEBFCDBF81B3806781BBD3
:1074300082B38F7882BB1ABA8FEF8BBB84E084BB98
:107440008BEF85BB81E08BBF82E08BBF0E94DC3974
:10745000882309F424C285B7836085BF8BB7806415
:107460008BBF889A2FEFA89588EB9BE00197F1F7E7
:107470002150C9F788987894AA24BB24809187006A
:1074800018160CF068C1282F23508091840047E91A
:1074900050E0481B5109809183008D3209F0CBC028
:1074A0008AE580936100283009F04DC1DA013C91F2
:1074B000832F8076FA012181882309F061C080E85A
:1074C00090E010928000222341F41092810090936A
:1074D00086008093850092E0EFC1253029F4FA01FF
:1074E000828180938800E7C12630A9F5FA01838163
:1074F000813019F482E890E704C0823041F484E9D5
:1075000090E7909386008093850092E1D8C1833004
:1075100009F0D4C1FA018281882341F484E590E71F
:10752000909386008093850094E0C9C1813041F436
:1075300088E590E790938600809385009CE1BFC129
:10754000823009F0BBC184E790E790938600809376
:1075500085009EE0B4C1283019F48AE890E00AC0A2
:10756000293029F4FA01828180938A00A4C12A304B
:1075700009F0A1C1909386008093850091E09CC1A1
:1075800088E690E09093860080938500233019F57B
:10759000FA01D3819481C92F8281803341F4E92F8C
:1075A000FF27E370F070EE59FF4F808110C0803AE2
:1075B00029F4DE010E94713C802D09C0803C31F429
:1075C000FA018581DE01082E0E94793C80E08093DB
:1075D0006B0084E023C0253011F481E01FC0822FAE
:1075E00084508630A8F4FA018281938190936F00D1
:1075F00080936E00293089F0968190937200858186
:107600008270809373002093740037FD96C094C0FD
:10761000223019F481E080936D0080E0982F4CC1F6
:10762000FA018781882309F090C08681891708F0C4
:107630008CC0982F8AC080916C0087FD84C0909187
:107640007200892F291708F4922F891B80937200EA
:1076500070E0882309F471E080917400A0916E00BD
:10766000B0916F008730A8F0092F1127C801FA01E7
:10767000019724F001900E94793CFACF20916E008E
:1076800030916F00200F311F30936F0020936E00F8
:107690004AC0692F1091730023E0D22E91E0E92EA9
:1076A00085E0F82E01E138C06250CD018F779070EF
:1076B000892B49F4F894FD01D0925700E89578940D
:1076C00007B600FCFDCFF894FA0181919191AF01CA
:1076D0000C01FD01E0925700E895112478949D017A
:1076E0002E5F3F4FC9018F779070892B31F01616AE
:1076F00094F0772381F0112371F0F894FD01F0925A
:107700005700E895789407B600FCFDCFF8940093F5
:107710005700E8957894D90116160CF4C5CFB093AC
:107720006F00A0936E00872F99278F3F41F48093BD
:1077300060008EE1809361009FEF20E006C0882307
:10774000D9F390E0FACF90E020E820936C0090937A
:107750006000109287008091610084FF87C0809153
:1077600060008F3F09F482C0682F893008F068E01C
:10777000861B8093600080916C0080FF02C003EC48
:1077800001C00BE48F5F80936C0087FF26C040919F
:1077900085005091860028E730E086FD03C0962FD3
:1077A000FA010FC0962FFA0105C08491D9018D937B
:1077B0009D0131969150C8F706C08191D9018D93F2
:1077C0009D019150D0F7CA01860F911D90938600BC
:1077D00080938500262F332731C0662309F471C0BA
:1077E00010917200812F611708F4162F811B80936E
:1077F000720080917400A0916E00B0916F0028E734
:1078000030E0412F5527873048F0CA01F901019730
:1078100024F00E94713C0192FACF04C0BD01C9015D
:107820000E94683C212F332780916E0090916F0059
:10783000820F931F90936F0080936E00122F293058
:1078400068F4622F88E790E00E948938912F9C5F4E
:10785000183040F48FEF8093600004C08FEF809366
:1078600060009EE100937700909361009AE080B3FE
:10787000857031F49150D9F71092880010928200EF
:1078800080916D00882331F00894A108B108A114FB
:10789000B10429F00E94DC39882309F0EFCD82B3CE
:1078A000806782BBF89481E08BBF1BBEE0917500BE
:1078B000F0917600099590E020E8B2CE90E020ECBF
:1078C000AFCE60E088E790E00E94893894E0C2CFB4
:1078D000FB01DC0102C005900D9241505040D8F7E9
:1078E0000895E199FECFBFBBAEBBE09A11960DB2F1
:1078F0000895E199FECFBFBBAEBB0DBA11960FB68E
:0A790000F894E29AE19A0FBE089590
:06790A00FF5A1E95020069
:040000030000700089
:00000001FF
