:100000000C9462010C94D9020C947D010C947D0136
:100010000C947D010C947D010C947D010C947D0168
:100020000C947D010C947D010C947D010C947D0158
:100030000C947D010C947D010C947D010C947D0148
:100040000C947D010C947D010C947D010C947D0138
:100050000C947D01F604E60416050C05E804EA0498
:10006000EE041405F204F404F004FE041C05F80484
:1000700020052405E4042605260526052605260573
:100080002605260526052605120510051E05FC0475
:10009000220528050E052605260526052605260522
:1000A00026052605260526052605260526052605F8
:1000B00026052605260526052605260526052605E8
:1000C000260526052605260526050005080504053E
:1000D000EC04FA041805260526052605260526053E
:1000E00026052605260526052605260526052605B8
:1000F00026052605260526052605260526052605A8
:100100002605260526052605260502050A050605F7
:100110001A050403090428037700770077002E00EE
:100120007300630068006100740065006E00730076
:1001300065006900740065002E006400650012030C
:10014000440075006C00630069006D00650072007A
:100150001201010100000008424231E100010102E8
:10016000000109022200010100803209040000019F
:1001700003010100092101010001223F000705815F
:100180000308000A05010906A101050719E029E78E
:1001900015002501750195088102950175088103F7
:1001A0009505750105081901290591029501750349
:1001B0009103950675081500256505071900296541
:1001C0008100C000000000000000000000000000EE
:1001D000000000292B351E14041D0064393A1F1A33
:1001E000161B003D3C3B20080706000A172221157C
:1001F0000919053E2A42430000282C0B1C23241811
:100200000D10113F302E250C0E36000040412612F5
:100210000F3700342F2D2713333238005C4C445FE6
:10022000595351625D4945605A544F635E4B4E616C
:100230005B555652004A4D575848500000004647FB
:10024000000000000001000000100000020000009B
:10025000002000000000000000000000000000007E
:10026000000000000000000000000000000000008E
:10027000000000000000000000000000000000007E
:10028000000000000000000000000000000000006E
:10029000000000000000000000000000000000005E
:1002A000000000000000000000000000000000004E
:1002B000000000000000000000000004000000003A
:1002C0000000400011241FBECFE5D8E0DEBFCDBF47
:1002D00010E0A0E6B0E0ECE3F4E102C005900D927E
:1002E000A237B107D9F710E0A2E7B0E001C01D9234
:1002F000A33CB107E1F70C94F5050C94000085B719
:10030000836085BF8BB780648BBF83EC809389004B
:1003100008950F931F93CF93DF9360919900161662
:100320000CF0C4C0635080919600C9EAD0E0C81BAD
:10033000D109809195008D3209F09BC08AE58093A8
:100340006100683009F0AAC08881807609F07DC01C
:1003500027E830E0109287008981882341F41092C9
:100360008800309398002093970092E079C0853000
:1003700021F48A8180939A00EFC0863009F047C04B
:100380008B81813019F480E591E026C0823041F400
:1003900082E691E0909398008093970092E2DFC00C
:1003A000833001F58A81882341F482E191E09093C2
:1003B00098008093970094E0D2C0813041F486E1A8
:1003C00091E0909398008093970098E2C8C08230A3
:1003D00009F0C4C08EE391E0909398008093970059
:1003E00092E1BDC0813241F484E791E0909398009E
:1003F0008093970099E0B3C0823209F0AFC084E8DF
:1004000091E090939800809397009FE3A8C0883074
:1004100039F48CE990E090939800809397000CC099
:10042000893021F48A8180939C0096C08A3031F40F
:10043000309398002093970091E012C08B3009F020
:100440008BC083EC8093890087C0CE010E94590441
:10045000982F8F3F29F4888187FF1AC09E8118C08A
:1004600020E88F818823E1F48E818917C8F4982FC2
:1004700017C08091720087FD11C0CE010E949904BF
:100480008F3F41F4809360008EE1809361009FEF85
:1004900020E006C08823D9F390E0FACF90E020E86E
:1004A00020937200909360001092990080916100F7
:1004B00084FF47C0809160008F3F09F442C0682FDD
:1004C000893008F068E0861B80936000809172009C
:1004D00080FF02C003EC01C00BE48F5F80937200C9
:1004E000209197003091980086FD05C0962FF90164
:1004F000AFE7B0E00DC0962FF901AFE7B0E003C061
:1005000084918D9331969150D8F704C081918D9349
:100510009150E0F7C901860F911D90939800809348
:1005200097007727162F8FE790E00E945504183028
:1005300018F48FEF8093600000937E001C5F10938F
:1005400061009AE080B3857061F49150D9F7109200
:100550009A001092940005C090E082CF90E020ECC9
:1005600080CFDF91CF911F910F9108951F93DC01F0
:10057000162F8091620084FF07C08091890098E85F
:1005800089278093890003C08AE580936200912FB8
:10059000EAE8F0E002C08D9181939150E0F7612F7D
:1005A0008AE890E00E9455041C5F109362001F913E
:1005B0000895CF93CFB7CF93809BFECF809B09C088
:1005C000809B07C0809B05C0809B03C0809B01C0AF
:1005D0009EC0DF93C0919600DD27C356DF4F809BFE
:1005E00002C0DF91EBCF2F930F931F9300B32FEF38
:1005F00000FB20F94F933F9310B34FEF012700FB0F
:1006000021F93BE031C04E7F012F10B3216028C09B
:10061000102F4D7F2260000000B329C04B7F246063
:10062000012F000010B32BC010B3477F28602AC0F1
:100630004F7E00B320612CC04F7D10B320622FC0CD
:100640004F7B00B3206432C0422700B349934FEF81
:100650000000102710FB20F910B31570A9F1297FB5
:1006600091F2012700FB21F900B3237F89F2315079
:10067000F0F1102710FB22F910B3277E79F2012741
:1006800000FB23F92F7C81F200B3102710FB24F923
:100690002F7971F200C010B3012700FB25F92F73E9
:1006A00059F200C000B3102710FB26F9223040F2A7
:1006B00000C010B3012700FB27F9243028F64F773C
:1006C000206810B30000F9CF3B503195333010E46F
:1006D0001ABFB8F0C31BD0400881033C41F10B3472
:1006E00031F11981412F1F7720919400121731F4B5
:1006F000093691F10D3279F0013E69F022272093FD
:100700009B003F914F911F910F912F91DF91CF91BE
:10071000CFBFCF91189500939B003F914F911F91B0
:100720000F912F91DF91CAB7C6FD46CFF0CF009150
:100730009B00002331F3109199001123A1F534306F
:10074000A2F13093990000939500109196003BE040
:10075000311B3093960029C00091990001301CF59F
:100760000AE547FD09C03091610034FD20C00093C7
:100770006100CEE7D0E01FC03091620034FD17C0A9
:1007800000936200C9E8D0E016C0052710E002BB64
:100790001FC0052722C0052727C005272CC0052715
:1007A00010E002BB33C04AE503C042ED01C0432F55
:1007B000C4E1D0E032E011B31560909A02B311BBEE
:1007C0005F9355E020E820FF052702BB279517958A
:1007D0001C3FD8F620FF0527279502BB17951C3F25
:1007E000C0F620FF05272795179502BB1C3F98F6FA
:1007F00020FF0527279517951C3F02BB70F600C008
:10080000499120FF052702BB279517951C3F38F615
:1008100020FF0527279502BB17951C3F38F520FFC1
:1008200005272795179502BB1C3F10F520FF0527CC
:10083000279517951C3F02BBE8F4242F3A9519F62B
:100840000A7F5F9102BB00C010919A00C651D04050
:1008500011F01093940010E41ABF016011B31A7FD5
:10086000402F4A7F02BB11BB42BB4BCF0527D3CFE2
:100870000527D8CF0527DDCFA82FB92F8FEF9FEF02
:1008800041E050EA615070F02D9138E0722F7827E6
:1008900096958795269570FF02C0842795273A95EF
:1008A000A9F7F0CF809590950895E6DF8D939D93FD
:1008B0000895FC0185E790E090939800809397005D
:1008C00080818076803291F58181813019F488E0D1
:1008D00090E00895893051F486819781019731F530
:1008E00081E0809373008FEF90E00895823019F4D7
:1008F0008DE790E014C08A3021F4838180937D00DD
:1009000007C0833041F48381882381F41092700002
:1009100080E090E008958B3049F480E790E0909378
:1009200098008093970081E090E0089580E090E047
:100930000895FC01809173008823A9F0613099F437
:10094000808180937400992780FF02C0969801C02F
:10095000969A81FF02C0959801C0959A82FF02C0C5
:10096000949801C0949A1092730081E090E00895E9
:10097000982F81568A3118F4292F2D5510C0892FB0
:1009800081548A3120F4292F2D5332E009C0892F58
:100990008153893010F020E002C0292F235130E02C
:1009A000892F992787FD9095A92FB92FFC01B09722
:1009B000EF35F10508F04AC0E65DFF4FEE0FFF1F6F
:1009C0000590F491E02D099427E244C02EE141C046
:1009D00021E23FC022E23DC023E23BC024E239C015
:1009E00025E237C026E235C027E233C02CE232C010
:1009F0002DE230C02DE22DC02EE22CC02EE229C007
:100A00002FE228C02FE225C020E324C020E321C02C
:100A100021E320C021E31DC022E31CC022E319C052
:100A200023E318C023E315C024E314C024E311C05A
:100A300025E310C025E30DC026E30CC026E309C062
:100A400027E308C027E305C028E304C0222311F4EC
:100A500028E332E0522F432FCA010895CF93DF934A
:100A6000CDB7DEB728970FB6F894DEBF0FBECDBF67
:100A700098E0FE01319611929A95E9F78983809169
:100A8000620084FFFCCF6B8368E0CE0101960E9478
:100A9000B60228960FB6F894DEBF0FBECDBFDF9129
:100AA000CF910895692F0E942E0560E080E00E949A
:100AB0002E050895FF920F931F93CF93DF936091BC
:100AC0006F0020E030E0E3EBF0E0A1E0B0E01FEFEA
:100AD00078E74FE050E0283068F4CD01022E02C0E4
:100AE000880F991F0A94E2F78ABB80958BBB14BAD2
:100AF00015BB0CC01ABA1BBBCD01042E02C0880F57
:100B0000991F0A94E2F784BB809585BB872F8A954D
:100B1000F1F796B390958081981711F090836AE071
:100B20002F5F3F4F4150504031962031310599F6AB
:100B300060936F00662309F450C0862F8150809324
:100B40006F00813009F049C088E0E5E7F0E01192DC
:100B50008A95E9F782E0F82EC3EBD0E0A0E0B0E0A0
:100B600088818F3F91F1AD014D535E4F9D012D5B0B
:100B70003D4F60E070E0082F1127C801062E02C02B
:100B8000959587950A94E2F780FF16C0FA01849143
:100B9000F9019491882349F0F7E0FF1530F0EF2D2B
:100BA000FF27EB58FF4F8083F394992329F080911E
:100BB0007500892B809375006F5F7F4F4F5F5F4F8C
:100BC0002F5F3F4F68307105C1F621961896A03807
:100BD000B10509F0C5CF81E001C080E09927DF9120
:100BE000CF911F910F91FF900895CFE5D8E0DEBF20
:100BF000CDBF88E190E02FE00FB6F894A89581BDB5
:100C00000FBE21BD8FEF88BB17BA8BBB1ABA85BB4D
:100C100014BA8AEF82BB85E781BB8CE28A95F1F733
:100C200080E781BB85E083BF82B38F7882BB80E0A1
:100C300090E00197F1F782B3806782BB0E947F0149
:100C400078940E945A0500E002C0102F012FA89549
:100C50000E9489010E945A05982F08B600FE09C01B
:100C600081E088BF10917D00112319F0053020F03C
:100C70000550992351F3102F8091620084FFE6CF35
:100C800068E085E790E00E94B602E0CF0F931F93E3
:100C9000CF93DF93EC0100E010E007C0AC0FBD1F65
:100CA0008C910E94B8040E945205A02FBB270F5FB1
:100CB0001F4FFE0101900020E9F73197EC1BFD0B5F
:100CC000AE17BF0758F3DF91CF911F910F91089591
:100CD000FF920F931F93CF93DF93CDB7DEB72A9781
:100CE0000FB6F894DEBF0FBECDBFFF24EF2DFF2758
:100CF000ED54FF4F808199279F938F9383E690E077
:100D00009F938F938E010F5F1F4F1F930F930E942E
:100D1000B606C8010E9446068DB79EB706960FB666
:100D2000F8949EBF0FBE8DBF97E0F91639F487E6A1
:100D300090E00E94460698E0F92ED8CF89E690E030
:100D40000E944606F3948FE08F1580F68BE690E0C4
:100D50000E9446062A960FB6F894DEBF0FBECDBF9E
:100D6000DF91CF911F910F91FF9008950F931F93E3
:100D7000CF93DF93CDB7DEB760970FB6F894DEBFA1
:100D80000FBECDBF0F89188D86E08E831C830B8329
:100D90008FEF9FE798878F83AE01455E5F4F5A8341
:100DA0004983698D7A8DCE0103960E94E8062985D4
:100DB0003A85020F131FF801108260960FB6F8945F
:100DC000DEBF0FBECDBFDF91CF911F910F91089570
:100DD0002F923F924F925F926F927F928F929F924B
:100DE000AF92BF92CF92DF92EF92FF920F931F9339
:100DF000CF93DF93CDB7DEB764970FB6F894DEBF1D
:100E00000FBECDBFCC24DD2476011C017C8B6B8B07
:100E10002A01FC0117821682838181FD03C08FEFB6
:100E20009FEF85C2AA24BB246FC2A0FE54C28A8948
:100E300080538A30E8F4FA89F03341F42D85222377
:100E400029F4A3FC03C080E091E06FC08AE0ED8547
:100E5000E802C0011124FA89F80FF053FD87F7FF6B
:100E600002C02FE72D87A3FC49C23D853E8746C2BD
:100E7000C50188709070A3FE05C0ED85EE2311F4C6
:100E8000F1E0FD872A89283624F525360CF05BC071
:100E9000233509F480C024358CF42B32C1F12C3277
:100EA00034F42032C1F1233209F00AC23CC03A893D
:100EB0003D32B1F13E3209F003C23AC08A8983362D
:100EC00009F449C084360CF081C0883509F0F8C1B6
:100ED0001BC0EA89E03709F4A3C0E13744F4EC36DB
:100EE00069F1EF3671F0E93609F0EAC16FC0FA89AD
:100EF000F53709F49DC0F83739F0F33709F0E0C150
:100F000034C028E0298B94C030E1398B91C080E156
:100F100090E0A82AB92AE0E2F0E0AE2ABF2AEEC1AA
:100F200020E830E00DC080E490E0A82AB92AE6C1AC
:100F3000E8E0F0E0AE2ABF2A1D86E0C124E030E000
:100F4000A22AB32ADBC13FE3C32E3E8531503E8740
:100F500083E68A8B41C1F201C080FE85F150FE8795
:100F600022E030E0420E531E37C1F201C080D18032
:100F7000892B49F0FD856F2F772767FD7095C60196
:100F80000E94C40919C0F60101900020E9F73197C9
:100F9000EC19E98B12C0F201C080D180892B49F095
:100FA000FD856F2F772767FD7095C6010E94B909EF
:100FB00003C0C6010E94B009898B22E030E0420ED6
:100FC000531E3E858989381B3E8706C1A2FE08C094
:100FD000F20180819181A281B38124E030E009C0D7
:100FE000F20180819181AA2797FDA095BA2F22E076
:100FF00030E0420E531E6C017D01B7FF0CC082E051
:1010000090E0A82AB92AF094E094D094C094C11C2E
:10101000D11CE11CF11CEFEBFFEFAE22BF2221C07F
:1010200020E430E0A22AB32A38E73A8B80E1898BAA
:10103000A2FE08C0F20180819181A281B38124E0E7
:1010400030E007C0F20180819181AA27BB2722E00E
:1010500030E0420E531E6C017D018FEC9FEFA82201
:10106000B92287017601FE013196F88BEF87F98965
:101070006F2E772488249924C801B701A401930115
:101080000E94FC096A3024F02A89620F615201C073
:10109000605DEF85F8896193F88BEF87C801B70130
:1010A000A40193010E94FC0979018A0121153105EF
:1010B0004105510509F7CC24DD247601CE010196C6
:1010C000CF84C81AC50182739070892B19F0FE85F0
:1010D000F150FE87A6FE09C02989203111F482E073
:1010E00001C081E03E85381B3E8728E0822E912C8E
:1010F0008A209B20A3FE18C08D85282F332727FD2B
:1011000030958C2D9927821793073CF0E7EFFFEF7E
:10111000AE22BF228824992407C0FD85FC19FD87D3
:101120002E852F1B2E8703C03E853C193E87C501A7
:1011300080789170892B69F48E8506C0B10180E2B8
:1011400090E00E94CF09812F182F11501816B4F388
:101150001E87A1FE04C0B1018DE290E00BC0A4FE89
:1011600004C0B1018BE290E005C0A5FE05C0B1014D
:1011700080E290E00E94CF09A6FE10C0B10180E39A
:1011800090E00E94CF098989803141F4B101EA8958
:101190008E2F992787FD90950E94CF09B0FE0DC034
:1011A0008E8506C0B10180E390E00E94CF09812FB7
:1011B000182F11501816B4F31E87892869F02D8551
:1011C00006C0B10180E390E00E94CF09212F122FC9
:1011D00011501216B4F31D8790E8692E712C6A2005
:1011E0007B20A7FC0DC08E8506C0B10180E290E097
:1011F0000E94CF09812F182F11501816B4F31E87A3
:10120000FA89F33641F4B1018C2D992787FD909529
:101210000E94CF0945C02A892337B1F446015601FF
:10122000198909C0F50181915F01B101992787FDF5
:1012300090950E94CF091150A8F76401F989CF0E4B
:10124000D11C2FEF298B2CC03A89333519F00F852B
:1012500018891FC046018601B98808C0F801849129
:10126000B10199270E94CF090F5F1F4FBA94FFEF7A
:10127000BF16A1F764012989C20ED11CF98B10C0D9
:10128000F80182918F01B101992787FD90950E9405
:10129000CF09CE0101960817190791F7188B0F8710
:1012A0006728B1F08E8506C0B10180E290E00E940F
:1012B000CF09812F182F11501816B4F31E8708C0BC
:1012C000B101FA898F2F992787FD90950E94CF0948
:1012D000AA24BB2413C02A89253241F43AE0398B71
:1012E0001E861D8681E0A82EB12C08C0B101EA89B6
:1012F0008E2F992787FD90950E94CF092B893C89D5
:101300002F5F3F4F3C8B2B8BF101838183FF04C008
:10131000EB89FC89F49103C0EB89FC89F081FA8B9D
:101320002A89222309F081CDF10186819781649673
:101330000FB6F894DEBF0FBECDBFDF91CF911F91E6
:101340000F91FF90EF90DF90CF90BF90AF909F9064
:101350008F907F906F905F904F903F902F90089567
:10136000FC0105900020E9F7809590958E0F9F1F56
:101370000895FC010590615070400110D8F78095E8
:1013800090958E0F9F1F0895FC0161507040019051
:101390000110D8F7809590958E0F9F1F08950F9399
:1013A0001F93CF93DF938C01EB018B81992781FFF2
:1013B0001BC082FF0DC02E813F818C819D8128172B
:1013C000390764F4E881F9810193F983E88306C061
:1013D000E885F985802F0995892B31F48E819F81CD
:1013E00001969F838E8302C00FEF1FEFC801DF912C
:1013F000CF911F910F910895A1E21A2EAA1BBB1B3A
:10140000FD010DC0AA1FBB1FEE1FFF1FA217B307D0
:10141000E407F50720F0A21BB30BE40BF50B661FE6
:10142000771F881F991F1A9469F7609570958095AA
:0C14300090959B01AC01BD01CF01089517
:10143C00FF5A5A253278003A002E002D2D2D00052A
:02144C0001009D
:00000001FF
